:04000000A8EF00F075
:1000080000C015F0F2A406D0F294DC0ED66E0B0EEA
:10001800D76E18D8F2A203D0840ED56EF292F0A053
:0E00280003D0820ED56EF09015C000F01100CE
:10003600F28ED08EF292F288F090F08CF086F18CEF
:06004600F18AF28A1200AB
:10004C00164A172A800E006E800E1718005C02E10B
:10005C001650090802E2166A176A24D03F0E8C6EFD
:10006C005ED0060E8C6E5BD05B0E8C6E58D04F0E35
:10007C008C6E55D0660E8C6E52D06D0E8C6E4FD031
:10008C007D0E8C6E4CD0070E8C6E49D07F0E8C6E14
:10009C0046D06F0E8C6E43D0836AFF0E166EFF0E29
:1000AC00176E3DD0000E171802E1000E1618D6E0A0
:1000BC00000E171802E1010E1618D3E0000E1718E7
:1000CC0002E1020E1618D0E0000E171802E1030E22
:1000DC001618CDE0000E171802E1040E1618CAE02F
:1000EC00000E171802E1050E1618C7E0000E1718BF
:1000FC0002E1060E1618C4E0000E171802E1070EF6
:10010C001618C1E0000E171802E1080E1618BEE012
:10011C00000E171802E1090E1618BBE0BDD712002D
:10012C000F0EC112F19E956A836A938093820F0E13
:04013C00806E1200BF
:100140000900F5CFE6FF0006FBE10106F9E1120028
:10015000FF0E166EFF0E176EE9DF6DDF040ED56E13
:0E016000DC0ED66E0B0ED76EF294FFD7FFD7D3
:020000040030CA
:0E000000000C1F1EFF8381FF0FC00FE00F409A
:00000001FF
