:10000000C0EF02F00000000000EF00F00000000070
:0A0010000000000000000000F3D71C
:10001C000F0E0C6E470E0D6E0D2EFED70C2EFCD750
:06002C00000000001200BC
:0A003200210E0D6E0D2EFED71200F8
:06003C00000000001200AC
:080042000AAE029E000E12003E
:10004A000B840BAE30EF00F0010E036E026A016AF8
:0A005A00006A0A360232FF0E12009F
:1000640033BE02D08A9601D08A8633BC02D08A94E9
:1000740001D08A8433BA02D08A9201D08A8233B8FA
:1000840002D08A9001D08A8020B002D08A8801D020
:100094008A988A8AD1DF8A9A33B602D08A9601D0A6
:1000A4008A8633B402D08A9401D08A8433B202D0CF
:1000B4008A9201D08A8233B002D08A9001D08A8099
:1000C40020B002D08A8801D08A988A8AB5DF8A9AB9
:0C00D40020A002D0A1DF01D0AADF1200A2
:0E00E000026A016A006A086A036A000E1200D2
:1000EE000B820BAE81EF00F00368026801680068B6
:0800FE000A360232FF0E120067
:0C0106000E0E0D6E0D2EFED70000120034
:100112000B800BAE95EF00F0026A0AAEFF0E026E84
:0C012200016E006E0A360232FF0E120061
:10012E000C6A0E6A0250D8A4B0EF00F001C002F0C3
:10013E0000C001F0006A0E860250D8A4B0EF00F0A5
:10014E0001C002F0016A0E960E880250D8B4C2EFBA
:10015E0000F00E50035ED8A4D8A0C7EF00F0D890E0
:10016E0002BECCEF00F0003601360236032EB7EF9A
:10017E0000F0C7EF00F0010E0C6EABDFCFEF00F01A
:10018E00020E0C6E5BDFCFEF00F0040E0C6E52DF32
:02019E0012004D
:0C01A000209032C033F05EDF208012009F
:1001AC000FD0800E2D6E19D0C00E2D6E16D0940E61
:1001BC002D6E13D0D40E2D6E10D0800E2D6E0DD052
:1001CC002D50010AEEE02D50020AEEE02D50030AEC
:1001DC00EEE02D50040AEEE0F0D72E04006E2D5008
:1001EC00002600C02DF000C033F036DF2090316ABD
:1001FC0031502F24E96E000E3020EA6EEE520BE0E7
:10020C0031502F24E96E000E3020EA6EEECF32F022
:0A021C00C1DF312AEDD72080120067
:100226000900F5CFE6FF0006FBE10106F9E1120041
:10023600939A939893909392939493968A9A8A9882
:100246008A968A948A928A90E6DEE5DEE4DE8A82DF
:100256008A808A8AF0DE8A9ADEDE8A8AECDE8A9ACA
:10026600DADE8A8AE8DE8A9AD6DE8A908A8AE3DE2F
:100276008A9AD1DE8A8ADFDE8A9A8A928A868A8A70
:10028600DADE8A9AC8DE8A968A808A8AD4DE8A9AD2
:100296008A908A8AD0DE8A9ABEDE8A8ACCDE8A9ADA
:1002A6008A808A8AC8DE8A9AB6DE8A908A8AC3DEFD
:1002B6008A9A8A868A848A828A808A8ABCDE8A9A0E
:0602C600AADE20801200F8
:1002CC002A0E1C6E050E1D6E2D0E1E6E000E1F6E60
:1002DC00C26A1B1C006E0050C1161B502D14006E00
:0E02EC000050C112070EC012C08EC280120058
:1002FA000B6A0C6A0A6A0350D8B4C7EF01F0028E7F
:10030A008E0E035E03BE8FEF01F0D8B48FEF01F0BB
:10031A00CBEF01F0036C080E035CD8A0A6EF01F046
:10032A00036E013602C001F0026A080E035CD8A00F
:10033A00A6EF01F00136016A0350D8A4D890B0EFB5
:10034A0001F00350D8B4B0EF01F0D8900232013274
:10035A00032EAAEF01F00BBC01A0BDEF01F0D8A05B
:10036A00BDEF01F0012AD8B4022A02BEDAEF01F089
:10037A000AAEDFEF01F0021E011E012AD8B4022ADA
:10038A00DFEF01F0026A016ADFEF01F00B800BAECA
:10039A00E3EF01F0026A0AAEE3EF01F0FF0E026E2C
:1003AA00016E0A360232E3EF01F0010E0C6EACDE8A
:1003BA00E5EF01F0000E0C6EE5EF01F0FF0E0C6E9A
:0A03CA000150006E0250016E120097
:1003D400086A096A100E0C6E013408360936045096
:1003E400085E0550D8A0053C095ED8B007D004507B
:1003F40008260550D8B0053C0926D89000360136A9
:060404000C2EEAD71200E5
:10040A00086A096A000E076203648AEF02F0025062
:10041A0006180A6E075003267E0ED8A01BEF02F0BC
:10042A00035ED8B08EEF02F01FEF02F0035ED8A091
:10043A0092EF02F0028E068E02C00EF001C00BF09F
:10044A0000C00DF000500402F4CF0CF00150050278
:10045A00F4CF00F0F3CF08F00402F3500C26F45066
:10046A000822000E00220D500502F3500C26F4500B
:10047A000822000E002202500402F3500826F4500B
:10048A00002202500502016A000E0122F3500026E2
:10049A00F45001220D500602F3500826F4500022AF
:1004AA00026A000E012202220B500602F3500026B5
:1004BA00F4500122000E02220E500602F3500126C9
:1004CA00F450022202BE72EF02F0083600360136FC
:1004DA0002360306D8B492EF02F085EF02F0D88014
:1004EA00800E08640030000E002201220222D8A0E9
:1004FA0085EF02F0023201320032034A8EEF02F037
:10050A000AAE029E000E94EF02F0010EE4DD94EFB3
:10051A0002F0020EE7DD94EF02F0040E91DD120004
:10052A00830EC2162DC000F00036009000360090EF
:10053A000050C212E3DDC282C2A201D0FDD7C4CFED
:0E054A0001F0006AC3500012000E01121200F0
:100558000050086E0150006E016A026A036A0B6A55
:100568000C6A960E036E0A6A00C001F008C000F01B
:08057800086A026AD8DD1200D6
:1005800056EC03F0300E2D6EA1DE9280010EC26E8D
:10059000300EC16EAA0EC06E4EDE010E336E62DDED
:1005A0000C0E336E5FDD010E2D6E010E2E6E150EDC
:1005B0002F6E000E306EFADD2D6AB7DFCDDF900EA4
:1005C000046E3E0E056E7A0E066E7E0E076E1DDF01
:1005D00094DE00C02BF001C02CF0E80E046E030E78
:1005E000056E2BC000F02CC001F0F4DE300E0026AA
:1005F00000C021F0640E046E000E056E2BC000F0EA
:100600002CC001F0E7DE0A0E046E000E056EE2DE7D
:1006100008C000F009C001F0300E0024226E0A0E5E
:10062000046E000E056E2BC000F02CC001F0D2DE6F
:100630000A0E046E000E056ECDDE08C000F009C083
:1006400001F0300E0024236E2E0E246E0A0E046E6E
:10065000000E056E2BC000F02CC001F0BBDE08C000
:1006600000F009C001F0300E0024256E200E266E29
:10067000DF0E276E430E286E296A010E2D6E060EC0
:100680002E6E210E2F6E000E306E90DD340E0C6E2D
:10069000F10E0D6E0D2EFED70C2EFCD700000000C3
:0406A0008BD7FFD71E
:1006AC0010EE15F0070E006E010E016EA40EF66E24
:0E06BC00060EF76E000EF86E13EC01F0120041
:0606A40054656D703A0080
:0106AA00301F
:020000040030CA
:0E000000000C1F1EFF8381FF0FC00FE00F409A
:00000001FF
