:0400000098EF00F085
:10000800F2A20CD0850ED56EF292680E0C6EE40E3C
:100018000D6E0D2EFED70C2EFCD70000F0A00CD0D4
:10002800830ED56EF090680E0C6EE40E0D6E0D2EDC
:0A003800FED70C2EFCD700001100CB
:100042000F0EC112F19E956A836A938093820F0EFE
:04005200806E1200AA
:10005600154A162A24D03F0E8C6E5ED0060E8C6E84
:100066005BD05B0E8C6E58D04F0E8C6E55D0660EE4
:100076008C6E52D06D0E8C6E4FD07D0E8C6E4CD029
:10008600070E8C6E49D07F0E8C6E46D06F0E8C6E2E
:1000960043D0836AFF0E156EFF0E166E3DD0000E1E
:1000A600161802E1000E1518D6E0000E161802E129
:1000B600010E1518D3E0000E161802E1020E1518EF
:1000C600D0E0000E161802E1030E1518CDE0000E62
:1000D600161802E1040E1518CAE0000E161802E101
:1000E600050E1518C7E0000E161802E1060E1518C3
:1000F600C4E0000E161802E1070E1518C1E0000E46
:10010600161802E1080E1518BEE0000E161802E1D8
:0A011600090E1518BBE0BDD712005A
:100120000900F5CFE6FF0006FBE10106F9E1120048
:10013000FF0E156EFF0E166E84DFF28ED08EF292D9
:10014000F288F090F08CF086F18CF18A040ED56E76
:10015000F40ED66E240ED76EF294F2A406D0F2946A
:0E016000F40ED66E240ED76E76DFF7D7FFD7DB
:020000040030CA
:0E000000000C1F1EFF8381FF0FC00FE00F409A
:00000001FF
